{
  "_format": "hh-sol-artifact-1",
  "contractName": "EIP4337Module",
  "sourceName": "contracts/account/modules/AccountManager/EIP4337Module.sol",
  "abi": [
    {
      "inputs": [],
      "name": "DepositFailed",
      "type": "error"
    },
    {
      "inputs": [],
      "name": "InvalidArrayLength",
      "type": "error"
    },
    {
      "inputs": [],
      "name": "NeedToOverride",
      "type": "error"
    },
    {
      "inputs": [],
      "name": "NoOngoingRecovery",
      "type": "error"
    },
    {
      "inputs": [],
      "name": "NotTheOwner",
      "type": "error"
    },
    {
      "inputs": [],
      "name": "NotTheOwnerOrTheEntryPoint",
      "type": "error"
    },
    {
      "inputs": [],
      "name": "NotUnlocked",
      "type": "error"
    },
    {
      "inputs": [],
      "name": "OngoingRecovery",
      "type": "error"
    },
    {
      "anonymous": false,
      "inputs": [
        {
          "indexed": true,
          "internalType": "address",
          "name": "oldEntryPoint",
          "type": "address"
        },
        {
          "indexed": true,
          "internalType": "address",
          "name": "newEntryPoint",
          "type": "address"
        }
      ],
      "name": "EntryPointChanged",
      "type": "event"
    },
    {
      "inputs": [],
      "name": "entryPoint",
      "outputs": [
        {
          "internalType": "contract IEntryPoint",
          "name": "",
          "type": "address"
        }
      ],
      "stateMutability": "view",
      "type": "function"
    },
    {
      "inputs": [],
      "name": "getNonce",
      "outputs": [
        {
          "internalType": "uint256",
          "name": "",
          "type": "uint256"
        }
      ],
      "stateMutability": "view",
      "type": "function"
    },
    {
      "inputs": [
        {
          "internalType": "bytes",
          "name": "data",
          "type": "bytes"
        }
      ],
      "name": "getRequiredSignatures",
      "outputs": [
        {
          "internalType": "uint256",
          "name": "",
          "type": "uint256"
        },
        {
          "internalType": "enum IEIP4337Module.OwnerSignature",
          "name": "",
          "type": "uint8"
        }
      ],
      "stateMutability": "view",
      "type": "function"
    },
    {
      "inputs": [],
      "name": "isRecoverying",
      "outputs": [
        {
          "internalType": "bool",
          "name": "",
          "type": "bool"
        }
      ],
      "stateMutability": "view",
      "type": "function"
    },
    {
      "inputs": [],
      "name": "isWhitelistEnabled",
      "outputs": [
        {
          "internalType": "bool",
          "name": "",
          "type": "bool"
        }
      ],
      "stateMutability": "view",
      "type": "function"
    },
    {
      "inputs": [
        {
          "internalType": "address[]",
          "name": "targets",
          "type": "address[]"
        }
      ],
      "name": "isWhitelisted",
      "outputs": [
        {
          "internalType": "bool",
          "name": "",
          "type": "bool"
        }
      ],
      "stateMutability": "view",
      "type": "function"
    },
    {
      "inputs": [],
      "name": "owner",
      "outputs": [
        {
          "internalType": "address",
          "name": "",
          "type": "address"
        }
      ],
      "stateMutability": "view",
      "type": "function"
    },
    {
      "inputs": [
        {
          "internalType": "contract IEntryPoint",
          "name": "newEntryPoint",
          "type": "address"
        }
      ],
      "name": "updateEntryPoint",
      "outputs": [],
      "stateMutability": "nonpayable",
      "type": "function"
    },
    {
      "inputs": [
        {
          "components": [
            {
              "internalType": "address",
              "name": "sender",
              "type": "address"
            },
            {
              "internalType": "uint256",
              "name": "nonce",
              "type": "uint256"
            },
            {
              "internalType": "bytes",
              "name": "initCode",
              "type": "bytes"
            },
            {
              "internalType": "bytes",
              "name": "callData",
              "type": "bytes"
            },
            {
              "internalType": "uint256",
              "name": "callGasLimit",
              "type": "uint256"
            },
            {
              "internalType": "uint256",
              "name": "verificationGasLimit",
              "type": "uint256"
            },
            {
              "internalType": "uint256",
              "name": "preVerificationGas",
              "type": "uint256"
            },
            {
              "internalType": "uint256",
              "name": "maxFeePerGas",
              "type": "uint256"
            },
            {
              "internalType": "uint256",
              "name": "maxPriorityFeePerGas",
              "type": "uint256"
            },
            {
              "internalType": "bytes",
              "name": "paymasterAndData",
              "type": "bytes"
            },
            {
              "internalType": "bytes",
              "name": "signature",
              "type": "bytes"
            }
          ],
          "internalType": "struct UserOperation",
          "name": "userOp",
          "type": "tuple"
        },
        {
          "internalType": "bytes32",
          "name": "userOpHash",
          "type": "bytes32"
        },
        {
          "internalType": "uint256",
          "name": "missingAccountFunds",
          "type": "uint256"
        }
      ],
      "name": "validateUserOp",
      "outputs": [
        {
          "internalType": "uint256",
          "name": "validationData",
          "type": "uint256"
        }
      ],
      "stateMutability": "nonpayable",
      "type": "function"
    }
  ],
  "bytecode": "0x608060405234801561001057600080fd5b50612691806100206000396000f3fe608060405234801561001057600080fd5b50600436106100a35760003560e01c806375a3f50d11610076578063b0d691fe1161005b578063b0d691fe14610163578063d087d28814610181578063f3c715b31461018957600080fd5b806375a3f50d146101035780638da5cb5b1461012457600080fd5b806317c3a270146100a8578063184d69ab146100c35780631b71bb6e146100cd5780633a871cdd146100e2575b600080fd5b60065415155b60405190151581526020015b60405180910390f35b60085415156100ae565b6100e06100db366004611efc565b61019c565b005b6100f56100f0366004611f19565b610232565b6040519081526020016100ba565b610116610111366004611f6d565b610258565b6040516100ba92919061200e565b60045473ffffffffffffffffffffffffffffffffffffffff165b60405173ffffffffffffffffffffffffffffffffffffffff90911681526020016100ba565b60035473ffffffffffffffffffffffffffffffffffffffff1661013e565b6100f5610df2565b6100ae61019736600461216f565b610eaf565b6101a4610f49565b60035460405173ffffffffffffffffffffffffffffffffffffffff8084169216907f450909c1478d09248269d4ad4fa8cba61ca3f50faed58c7aedefa51c7f62b83a90600090a3600380547fffffffffffffffffffffffff00000000000000000000000000000000000000001673ffffffffffffffffffffffffffffffffffffffff92909216919091179055565b600061023c610fd4565b6102468484611057565b905061025182611236565b9392505050565b60008061029a84848080601f0160208091040260200160405190810160405280939291908181526020018383808284376000920191909152506112ad92505050565b7bffffffffffffffffffffffffffffffffffffffffffffffffffffffff1916639040a9c960e01b1480610330575061030784848080601f0160208091040260200160405190810160405280939291908181526020018383808284376000920191909152506112ad92505050565b7bffffffffffffffffffffffffffffffffffffffffffffffffffffffff19166320f00fcf60e01b145b15610347576103428360c481876121a4565b935093505b600061038885858080601f0160208091040260200160405190810160405280939291908181526020018383808284376000920191909152506112ad92505050565b9050610395600654151590565b1580156103e357507fffffffff0000000000000000000000000000000000000000000000000000000081167f0ba234d600000000000000000000000000000000000000000000000000000000145b8061043b57506006541515801561043b57507fffffffff0000000000000000000000000000000000000000000000000000000081167f3bc2c4a700000000000000000000000000000000000000000000000000000000145b806104ad575060045474010000000000000000000000000000000000000000900460ff161580156104ad57507fffffffff0000000000000000000000000000000000000000000000000000000081167fa69df4b500000000000000000000000000000000000000000000000000000000145b8061073d57506006541515806104dd575060045474010000000000000000000000000000000000000000900460ff165b801561073d57507fffffffff0000000000000000000000000000000000000000000000000000000081167f76e21db000000000000000000000000000000000000000000000000000000000148061057557507fffffffff0000000000000000000000000000000000000000000000000000000081167f80c5c7d000000000000000000000000000000000000000000000000000000000145b806105c157507fffffffff0000000000000000000000000000000000000000000000000000000081167f548db17400000000000000000000000000000000000000000000000000000000145b8061060d57507fffffffff0000000000000000000000000000000000000000000000000000000081167f7f64978300000000000000000000000000000000000000000000000000000000145b8061065957507fffffffff0000000000000000000000000000000000000000000000000000000081167fa526d83b00000000000000000000000000000000000000000000000000000000145b806106a557507fffffffff0000000000000000000000000000000000000000000000000000000081167f73fab36700000000000000000000000000000000000000000000000000000000145b806106f157507fffffffff0000000000000000000000000000000000000000000000000000000081167fd8ee450900000000000000000000000000000000000000000000000000000000145b8061073d57507fffffffff0000000000000000000000000000000000000000000000000000000081167ff83d08ba00000000000000000000000000000000000000000000000000000000145b1561075057600060029250925050610deb565b7fffffffff0000000000000000000000000000000000000000000000000000000081167f76e21db00000000000000000000000000000000000000000000000000000000014156108ab57600080806107ab876004818b6121a4565b8101906107b891906122dc565b92509250925060006107ca84836112b4565b600d546040517f2980c7e400000000000000000000000000000000000000000000000000000000815291925073ffffffffffffffffffffffffffffffffffffffff1690632980c7e4906108219084906004016123b8565b602060405180830381865afa15801561083e573d6000803e3d6000fd5b505050506040513d601f19601f820116820180604052508101906108629190612412565b80610871575061087181610eaf565b156108885760016000965096505050505050610deb565b6108906113d2565b61089b906001612463565b6000965096505050505050610deb565b7fffffffff0000000000000000000000000000000000000000000000000000000081167f80c5c7d00000000000000000000000000000000000000000000000000000000014156109ca5760008080610906876004818b6121a4565b810190610913919061247b565b9250925092506000610925848361141c565b600d546040517ffe9fbb8000000000000000000000000000000000000000000000000000000000815273ffffffffffffffffffffffffffffffffffffffff808416600483015292935091169063fe9fbb8090602401602060405180830381865afa158015610997573d6000803e3d6000fd5b505050506040513d601f19601f820116820180604052508101906109bb9190612412565b806108715750610871816116a9565b7fffffffff0000000000000000000000000000000000000000000000000000000081167f548db174000000000000000000000000000000000000000000000000000000001480610a5b57507fffffffff0000000000000000000000000000000000000000000000000000000081167ff83d08ba00000000000000000000000000000000000000000000000000000000145b15610a6e57600160009250925050610deb565b7fffffffff0000000000000000000000000000000000000000000000000000000081167f7f649783000000000000000000000000000000000000000000000000000000001480610aff57507fffffffff0000000000000000000000000000000000000000000000000000000081167fa69df4b500000000000000000000000000000000000000000000000000000000145b80610b4b57507fffffffff0000000000000000000000000000000000000000000000000000000081167f0ba234d600000000000000000000000000000000000000000000000000000000145b80610b9757507fffffffff0000000000000000000000000000000000000000000000000000000081167fa526d83b00000000000000000000000000000000000000000000000000000000145b80610be357507fffffffff0000000000000000000000000000000000000000000000000000000081167f73fab36700000000000000000000000000000000000000000000000000000000145b80610c2f57507fffffffff0000000000000000000000000000000000000000000000000000000081167faf648c3d00000000000000000000000000000000000000000000000000000000145b80610c7b57507fffffffff0000000000000000000000000000000000000000000000000000000081167fd8ee450900000000000000000000000000000000000000000000000000000000145b80610cc757507fffffffff0000000000000000000000000000000000000000000000000000000081167f1b71bb6e00000000000000000000000000000000000000000000000000000000145b80610d1357507fffffffff0000000000000000000000000000000000000000000000000000000081167fa034fa6300000000000000000000000000000000000000000000000000000000145b80610d5f57507fffffffff0000000000000000000000000000000000000000000000000000000081167f1a5da6c800000000000000000000000000000000000000000000000000000000145b15610d8357610d6c6113d2565b610d77906001612463565b60009250925050610deb565b7fffffffff0000000000000000000000000000000000000000000000000000000081167f3bc2c4a7000000000000000000000000000000000000000000000000000000001415610de157610dd56113d2565b60019250925050610deb565b6000600292509250505b9250929050565b6000610e1360035473ffffffffffffffffffffffffffffffffffffffff1690565b6040517f35567e1a0000000000000000000000000000000000000000000000000000000081523060048201526000602482015273ffffffffffffffffffffffffffffffffffffffff91909116906335567e1a90604401602060405180830381865afa158015610e86573d6000803e3d6000fd5b505050506040513d601f19601f82011682018060405250810190610eaa91906124ca565b905090565b6000610ebc600854151590565b610ec857506001919050565b60005b8251811015610f405760006007016000848381518110610eed57610eed6124e3565b60209081029190910181015173ffffffffffffffffffffffffffffffffffffffff1682528101919091526040016000205460ff16610f2e5750600092915050565b80610f3881612512565b915050610ecb565b50600192915050565b600354339073ffffffffffffffffffffffffffffffffffffffff168114610fd1576040517f08c379a000000000000000000000000000000000000000000000000000000000815260206004820152601c60248201527f6163636f756e743a206e6f742066726f6d20456e747279506f696e740000000060448201526064015b60405180910390fd5b50565b60035473ffffffffffffffffffffffffffffffffffffffff163314611055576040517f08c379a000000000000000000000000000000000000000000000000000000000815260206004820152601c60248201527f6163636f756e743a206e6f742066726f6d20456e747279506f696e74000000006044820152606401610fc8565b565b6000806110b1836040517f19457468657265756d205369676e6564204d6573736167653a0a3332000000006020820152603c8101829052600090605c01604051602081830303815290604052805190602001209050919050565b90503660006110c461014087018761254b565b90925090506110d6604087018761254b565b15905080156110f3575060046110ef606088018861254b565b9050105b156111045760019350505050611230565b6000611113604088018861254b565b90501115611195576111678361112d6041600085876121a4565b8080601f0160208091040260200160405190810160405280939291908181526020018383808284376000920191909152506116ee92505050565b60045473ffffffffffffffffffffffffffffffffffffffff9081169116146111955760019350505050611230565b60046111a4606088018861254b565b905010611228576000806111be61011160608a018a61254b565b909250905060028160028111156111d7576111d7611fdf565b14156111eb57600195505050505050611230565b6111f5828461170a565b61120757600195505050505050611230565b61121385858584611730565b61122557600195505050505050611230565b50505b600093505050505b92915050565b8015610fd15760405160009033907fffffffffffffffffffffffffffffffffffffffffffffffffffffffffffffffff90849084818181858888f193505050503d80600081146112a1576040519150601f19603f3d011682016040523d82523d6000602084013e6112a6565b606091505b5050505050565b6020015190565b606081518351146112f1576040517f9d89020a00000000000000000000000000000000000000000000000000000000815260040160405180910390fd5b6000835167ffffffffffffffff81111561130d5761130d612059565b604051908082528060200260200182016040528015611336578160200160208202803683370190505b50905060005b84518110156113ca5761138185828151811061135a5761135a6124e3565b6020026020010151858381518110611374576113746124e3565b602002602001015161141c565b828281518110611393576113936124e3565b73ffffffffffffffffffffffffffffffffffffffff90921660209283029190910190910152806113c281612512565b91505061133c565b509392505050565b6009546000906113e25750600090565b6009546113f1906002906125df565b61140e5760095461140390600261193d565b610eaa906001612463565b600954610eaa90600261193d565b600060448251106116a25760208201517fffffffff0000000000000000000000000000000000000000000000000000000081167fa9059cbb0000000000000000000000000000000000000000000000000000000014806114bd57507fffffffff0000000000000000000000000000000000000000000000000000000081167f095ea7b300000000000000000000000000000000000000000000000000000000145b8061150957507fffffffff0000000000000000000000000000000000000000000000000000000081167fa22cb46500000000000000000000000000000000000000000000000000000000145b1561151a5750506024810151611230565b7fffffffff0000000000000000000000000000000000000000000000000000000081167f23b872dd0000000000000000000000000000000000000000000000000000000014806115ab57507fffffffff0000000000000000000000000000000000000000000000000000000081167f42842e0e00000000000000000000000000000000000000000000000000000000145b806115f757507fffffffff0000000000000000000000000000000000000000000000000000000081167fb88d4fde00000000000000000000000000000000000000000000000000000000145b8061164357507fffffffff0000000000000000000000000000000000000000000000000000000081167ff242432a00000000000000000000000000000000000000000000000000000000145b8061168f57507fffffffff0000000000000000000000000000000000000000000000000000000081167f2eb2c2d600000000000000000000000000000000000000000000000000000000145b156116a05750506044810151611230565b505b5090919050565b60006116b6600854151590565b6116c257506001919050565b5073ffffffffffffffffffffffffffffffffffffffff1660009081526007602052604090205460ff1690565b60008060006116fd8585611974565b915091506113ca816119b7565b60008215806117235750816117208460416125f3565b14155b15610f4057506000611230565b600060608183600281111561174757611747611fdf565b1415806117545750604184115b156117c15760098054604080516020808402820181019092528281529291908301828280156117b957602002820191906000526020600020905b815473ffffffffffffffffffffffffffffffffffffffff16815260019091019060200180831161178e575b505050505090505b600080805b6117d1604188612630565b81101561192c5736600089896117e88560416125f3565b906117f4866001612463565b6117ff9060416125f3565b9261180c939291906121a4565b9150915060006118528c84848080601f0160208091040260200160405190810160405280939291908181526020018383808284376000920191909152506116ee92505050565b9050836118ad57600089600281111561186d5761186d611fdf565b14156118ad5760045473ffffffffffffffffffffffffffffffffffffffff8281169116146118a5576000975050505050505050611935565b50505061191a565b8473ffffffffffffffffffffffffffffffffffffffff168173ffffffffffffffffffffffffffffffffffffffff16116118f0576000975050505050505050611935565b8094506118fd8782611b6e565b9750955085611916576000975050505050505050611935565b5050505b8061192481612512565b9150506117c6565b50600193505050505b949350505050565b60008061194a8385612630565b905061195683856125df565b611961579050611230565b61196c816001612463565b915050611230565b6000808251604114156119ab5760208301516040840151606085015160001a61199f87828585611d6e565b94509450505050610deb565b50600090506002610deb565b60008160048111156119cb576119cb611fdf565b14156119d45750565b60018160048111156119e8576119e8611fdf565b1415611a50576040517f08c379a000000000000000000000000000000000000000000000000000000000815260206004820152601860248201527f45434453413a20696e76616c6964207369676e617475726500000000000000006044820152606401610fc8565b6002816004811115611a6457611a64611fdf565b1415611acc576040517f08c379a000000000000000000000000000000000000000000000000000000000815260206004820152601f60248201527f45434453413a20696e76616c6964207369676e6174757265206c656e677468006044820152606401610fc8565b6003816004811115611ae057611ae0611fdf565b1415610fd1576040517f08c379a000000000000000000000000000000000000000000000000000000000815260206004820152602260248201527f45434453413a20696e76616c6964207369676e6174757265202773272076616c60448201527f75650000000000000000000000000000000000000000000000000000000000006064820152608401610fc8565b60006060835160001480611b96575073ffffffffffffffffffffffffffffffffffffffff8316155b15611ba657506000905082610deb565b60008060018651611bb79190612644565b67ffffffffffffffff811115611bcf57611bcf612059565b604051908082528060200260200182016040528015611bf8578160200160208202803683370190505b5090506000805b8751811015611d4e5783611cd457878181518110611c1f57611c1f6124e3565b602002602001015173ffffffffffffffffffffffffffffffffffffffff168773ffffffffffffffffffffffffffffffffffffffff161415611c635760019350611d3c565b611c9c888281518110611c7857611c786124e3565b602002602001015173ffffffffffffffffffffffffffffffffffffffff163b151590565b8015611cc65750611cc6888281518110611cb857611cb86124e3565b602002602001015188611e5d565b15611cd45760019350611d3c565b8251821015611d3c57878181518110611cef57611cef6124e3565b6020026020010151838381518110611d0957611d096124e3565b73ffffffffffffffffffffffffffffffffffffffff9092166020928302919091019091015281611d3881612512565b9250505b80611d4681612512565b915050611bff565b5082611d5c57600087611d60565b6001825b945094505050509250929050565b6000807f7fffffffffffffffffffffffffffffff5d576e7357a4501ddfe92f46681b20a0831115611da55750600090506003611e54565b6040805160008082526020820180845289905260ff881692820192909252606081018690526080810185905260019060a0016020604051602081039080840390855afa158015611df9573d6000803e3d6000fd5b50506040517fffffffffffffffffffffffffffffffffffffffffffffffffffffffffffffffe0015191505073ffffffffffffffffffffffffffffffffffffffff8116611e4d57600060019250925050611e54565b9150600090505b94509492505050565b6040517f8da5cb5b00000000000000000000000000000000000000000000000000000000815260009081906020818181886161a8fa6001811415611ea057815192505b50508273ffffffffffffffffffffffffffffffffffffffff168173ffffffffffffffffffffffffffffffffffffffff161491505092915050565b73ffffffffffffffffffffffffffffffffffffffff81168114610fd157600080fd5b600060208284031215611f0e57600080fd5b813561025181611eda565b600080600060608486031215611f2e57600080fd5b833567ffffffffffffffff811115611f4557600080fd5b84016101608187031215611f5857600080fd5b95602085013595506040909401359392505050565b60008060208385031215611f8057600080fd5b823567ffffffffffffffff80821115611f9857600080fd5b818501915085601f830112611fac57600080fd5b813581811115611fbb57600080fd5b866020828501011115611fcd57600080fd5b60209290920196919550909350505050565b7f4e487b7100000000000000000000000000000000000000000000000000000000600052602160045260246000fd5b828152604081016003831061204c577f4e487b7100000000000000000000000000000000000000000000000000000000600052602160045260246000fd5b8260208301529392505050565b7f4e487b7100000000000000000000000000000000000000000000000000000000600052604160045260246000fd5b604051601f82017fffffffffffffffffffffffffffffffffffffffffffffffffffffffffffffffe016810167ffffffffffffffff811182821017156120cf576120cf612059565b604052919050565b600067ffffffffffffffff8211156120f1576120f1612059565b5060051b60200190565b600082601f83011261210c57600080fd5b8135602061212161211c836120d7565b612088565b82815260059290921b8401810191818101908684111561214057600080fd5b8286015b8481101561216457803561215781611eda565b8352918301918301612144565b509695505050505050565b60006020828403121561218157600080fd5b813567ffffffffffffffff81111561219857600080fd5b611935848285016120fb565b600080858511156121b457600080fd5b838611156121c157600080fd5b5050820193919092039150565b600082601f8301126121df57600080fd5b813567ffffffffffffffff8111156121f9576121f9612059565b61222a60207fffffffffffffffffffffffffffffffffffffffffffffffffffffffffffffffe0601f84011601612088565b81815284602083860101111561223f57600080fd5b816020850160208301376000918101602001919091529392505050565b600082601f83011261226d57600080fd5b8135602061227d61211c836120d7565b82815260059290921b8401810191818101908684111561229c57600080fd5b8286015b8481101561216457803567ffffffffffffffff8111156122c05760008081fd5b6122ce8986838b01016121ce565b8452509183019183016122a0565b6000806000606084860312156122f157600080fd5b833567ffffffffffffffff8082111561230957600080fd5b612315878388016120fb565b945060209150818601358181111561232c57600080fd5b8601601f8101881361233d57600080fd5b803561234b61211c826120d7565b81815260059190911b8201840190848101908a83111561236a57600080fd5b928501925b828410156123885783358252928501929085019061236f565b965050505060408601359150808211156123a157600080fd5b506123ae8682870161225c565b9150509250925092565b6020808252825182820181905260009190848201906040850190845b8181101561240657835173ffffffffffffffffffffffffffffffffffffffff16835292840192918401916001016123d4565b50909695505050505050565b60006020828403121561242457600080fd5b8151801515811461025157600080fd5b7f4e487b7100000000000000000000000000000000000000000000000000000000600052601160045260246000fd5b6000821982111561247657612476612434565b500190565b60008060006060848603121561249057600080fd5b833561249b81611eda565b925060208401359150604084013567ffffffffffffffff8111156124be57600080fd5b6123ae868287016121ce565b6000602082840312156124dc57600080fd5b5051919050565b7f4e487b7100000000000000000000000000000000000000000000000000000000600052603260045260246000fd5b60007fffffffffffffffffffffffffffffffffffffffffffffffffffffffffffffffff82141561254457612544612434565b5060010190565b60008083357fffffffffffffffffffffffffffffffffffffffffffffffffffffffffffffffe184360301811261258057600080fd5b83018035915067ffffffffffffffff82111561259b57600080fd5b602001915036819003821315610deb57600080fd5b7f4e487b7100000000000000000000000000000000000000000000000000000000600052601260045260246000fd5b6000826125ee576125ee6125b0565b500690565b6000817fffffffffffffffffffffffffffffffffffffffffffffffffffffffffffffffff048311821515161561262b5761262b612434565b500290565b60008261263f5761263f6125b0565b500490565b60008282101561265657612656612434565b50039056fea2646970667358221220f635524f11f60909dcb2c1b6e624a09e9ca37bcf419ebec035a9a0c284e0903364736f6c634300080c0033",
  "linkReferences": {},
  "deployedLinkReferences": {}
}